{
  "_format": "hh-sol-artifact-1",
  "contractName": "GiftChain",
  "sourceName": "contracts/Gifting.sol",
  "abi": [
    {
      "inputs": [],
      "stateMutability": "nonpayable",
      "type": "constructor"
    },
    {
      "anonymous": false,
      "inputs": [
        {
          "indexed": true,
          "internalType": "address",
          "name": "owner",
          "type": "address"
        },
        {
          "indexed": true,
          "internalType": "address",
          "name": "approved",
          "type": "address"
        },
        {
          "indexed": true,
          "internalType": "uint256",
          "name": "tokenId",
          "type": "uint256"
        }
      ],
      "name": "Approval",
      "type": "event"
    },
    {
      "anonymous": false,
      "inputs": [
        {
          "indexed": true,
          "internalType": "address",
          "name": "owner",
          "type": "address"
        },
        {
          "indexed": true,
          "internalType": "address",
          "name": "operator",
          "type": "address"
        },
        {
          "indexed": false,
          "internalType": "bool",
          "name": "approved",
          "type": "bool"
        }
      ],
      "name": "ApprovalForAll",
      "type": "event"
    },
    {
      "anonymous": false,
      "inputs": [
        {
          "indexed": true,
          "internalType": "address",
          "name": "from",
          "type": "address"
        },
        {
          "indexed": true,
          "internalType": "address",
          "name": "to",
          "type": "address"
        },
        {
          "indexed": true,
          "internalType": "uint256",
          "name": "tokenId",
          "type": "uint256"
        }
      ],
      "name": "Transfer",
      "type": "event"
    },
    {
      "inputs": [
        {
          "internalType": "address",
          "name": "to",
          "type": "address"
        },
        {
          "internalType": "uint256",
          "name": "tokenId",
          "type": "uint256"
        }
      ],
      "name": "approve",
      "outputs": [],
      "stateMutability": "nonpayable",
      "type": "function"
    },
    {
      "inputs": [
        {
          "internalType": "address",
          "name": "owner",
          "type": "address"
        }
      ],
      "name": "balanceOf",
      "outputs": [
        {
          "internalType": "uint256",
          "name": "",
          "type": "uint256"
        }
      ],
      "stateMutability": "view",
      "type": "function"
    },
    {
      "inputs": [
        {
          "internalType": "uint256",
          "name": "tokenId",
          "type": "uint256"
        }
      ],
      "name": "getApproved",
      "outputs": [
        {
          "internalType": "address",
          "name": "",
          "type": "address"
        }
      ],
      "stateMutability": "view",
      "type": "function"
    },
    {
      "inputs": [],
      "name": "getLatestTokenId",
      "outputs": [
        {
          "internalType": "uint256",
          "name": "",
          "type": "uint256"
        }
      ],
      "stateMutability": "view",
      "type": "function"
    },
    {
      "inputs": [
        {
          "internalType": "address",
          "name": "owner",
          "type": "address"
        },
        {
          "internalType": "address",
          "name": "operator",
          "type": "address"
        }
      ],
      "name": "isApprovedForAll",
      "outputs": [
        {
          "internalType": "bool",
          "name": "",
          "type": "bool"
        }
      ],
      "stateMutability": "view",
      "type": "function"
    },
    {
      "inputs": [
        {
          "internalType": "address",
          "name": "recipient",
          "type": "address"
        },
        {
          "internalType": "string",
          "name": "_emojiKeyword",
          "type": "string"
        },
        {
          "internalType": "string",
          "name": "_message",
          "type": "string"
        }
      ],
      "name": "mintGift",
      "outputs": [],
      "stateMutability": "nonpayable",
      "type": "function"
    },
    {
      "inputs": [],
      "name": "name",
      "outputs": [
        {
          "internalType": "string",
          "name": "",
          "type": "string"
        }
      ],
      "stateMutability": "view",
      "type": "function"
    },
    {
      "inputs": [
        {
          "internalType": "uint256",
          "name": "tokenId",
          "type": "uint256"
        }
      ],
      "name": "ownerOf",
      "outputs": [
        {
          "internalType": "address",
          "name": "",
          "type": "address"
        }
      ],
      "stateMutability": "view",
      "type": "function"
    },
    {
      "inputs": [
        {
          "internalType": "address",
          "name": "from",
          "type": "address"
        },
        {
          "internalType": "address",
          "name": "to",
          "type": "address"
        },
        {
          "internalType": "uint256",
          "name": "tokenId",
          "type": "uint256"
        }
      ],
      "name": "safeTransferFrom",
      "outputs": [],
      "stateMutability": "nonpayable",
      "type": "function"
    },
    {
      "inputs": [
        {
          "internalType": "address",
          "name": "from",
          "type": "address"
        },
        {
          "internalType": "address",
          "name": "to",
          "type": "address"
        },
        {
          "internalType": "uint256",
          "name": "tokenId",
          "type": "uint256"
        },
        {
          "internalType": "bytes",
          "name": "data",
          "type": "bytes"
        }
      ],
      "name": "safeTransferFrom",
      "outputs": [],
      "stateMutability": "nonpayable",
      "type": "function"
    },
    {
      "inputs": [
        {
          "internalType": "address",
          "name": "operator",
          "type": "address"
        },
        {
          "internalType": "bool",
          "name": "approved",
          "type": "bool"
        }
      ],
      "name": "setApprovalForAll",
      "outputs": [],
      "stateMutability": "nonpayable",
      "type": "function"
    },
    {
      "inputs": [
        {
          "internalType": "bytes4",
          "name": "interfaceId",
          "type": "bytes4"
        }
      ],
      "name": "supportsInterface",
      "outputs": [
        {
          "internalType": "bool",
          "name": "",
          "type": "bool"
        }
      ],
      "stateMutability": "view",
      "type": "function"
    },
    {
      "inputs": [],
      "name": "symbol",
      "outputs": [
        {
          "internalType": "string",
          "name": "",
          "type": "string"
        }
      ],
      "stateMutability": "view",
      "type": "function"
    },
    {
      "inputs": [
        {
          "internalType": "uint256",
          "name": "tokenId",
          "type": "uint256"
        }
      ],
      "name": "tokenURI",
      "outputs": [
        {
          "internalType": "string",
          "name": "",
          "type": "string"
        }
      ],
      "stateMutability": "view",
      "type": "function"
    },
    {
      "inputs": [
        {
          "internalType": "address",
          "name": "from",
          "type": "address"
        },
        {
          "internalType": "address",
          "name": "to",
          "type": "address"
        },
        {
          "internalType": "uint256",
          "name": "tokenId",
          "type": "uint256"
        }
      ],
      "name": "transferFrom",
      "outputs": [],
      "stateMutability": "nonpayable",
      "type": "function"
    },
    {
      "inputs": [
        {
          "internalType": "uint256",
          "name": "tokenId",
          "type": "uint256"
        }
      ],
      "name": "viewGift",
      "outputs": [
        {
          "internalType": "string",
          "name": "",
          "type": "string"
        },
        {
          "internalType": "string",
          "name": "",
          "type": "string"
        },
        {
          "internalType": "address",
          "name": "",
          "type": "address"
        }
      ],
      "stateMutability": "view",
      "type": "function"
    }
  ],
  "bytecode": "0x608060405234801561001057600080fd5b506040518060400160405280600981526020017f47696674436861696e00000000000000000000000000000000000000000000008152506040518060400160405280600481526020017f4749465400000000000000000000000000000000000000000000000000000000815250816000908161008c91906102f4565b50806001908161009c91906102f4565b5050506103c6565b600081519050919050565b7f4e487b7100000000000000000000000000000000000000000000000000000000600052604160045260246000fd5b7f4e487b7100000000000000000000000000000000000000000000000000000000600052602260045260246000fd5b6000600282049050600182168061012557607f821691505b602082108103610138576101376100de565b5b50919050565b60008190508160005260206000209050919050565b60006020601f8301049050919050565b600082821b905092915050565b6000600883026101a07fffffffffffffffffffffffffffffffffffffffffffffffffffffffffffffffff82610163565b6101aa8683610163565b95508019841693508086168417925050509392505050565b6000819050919050565b6000819050919050565b60006101f16101ec6101e7846101c2565b6101cc565b6101c2565b9050919050565b6000819050919050565b61020b836101d6565b61021f610217826101f8565b848454610170565b825550505050565b600090565b610234610227565b61023f818484610202565b505050565b5b818110156102635761025860008261022c565b600181019050610245565b5050565b601f8211156102a8576102798161013e565b61028284610153565b81016020851015610291578190505b6102a561029d85610153565b830182610244565b50505b505050565b600082821c905092915050565b60006102cb600019846008026102ad565b1980831691505092915050565b60006102e483836102ba565b9150826002028217905092915050565b6102fd826100a4565b67ffffffffffffffff811115610316576103156100af565b5b610320825461010d565b61032b828285610267565b600060209050601f83116001811461035e576000841561034c578287015190505b61035685826102d8565b8655506103be565b601f19841661036c8661013e565b60005b828110156103945784890151825560018201915060208501945060208101905061036f565b868310156103b157848901516103ad601f8916826102ba565b8355505b6001600288020188555050505b505050505050565b612cd1806103d56000396000f3fe608060405234801561001057600080fd5b50600436106101005760003560e01c806370a0823111610097578063b88d4fde11610066578063b88d4fde146102ab578063bf2eaf95146102c7578063c87b56dd146102f9578063e985e9c51461032957610100565b806370a082311461022557806374ee77d11461025557806395d89b4114610271578063a22cb4651461028f57610100565b806323b872dd116100d357806323b872dd1461019f57806325d112a9146101bb57806342842e0e146101d95780636352211e146101f557610100565b806301ffc9a71461010557806306fdde0314610135578063081812fc14610153578063095ea7b314610183575b600080fd5b61011f600480360381019061011a9190611b72565b610359565b60405161012c9190611bba565b60405180910390f35b61013d61043b565b60405161014a9190611c65565b60405180910390f35b61016d60048036038101906101689190611cbd565b6104cd565b60405161017a9190611d2b565b60405180910390f35b61019d60048036038101906101989190611d72565b610513565b005b6101b960048036038101906101b49190611db2565b61062a565b005b6101c361068a565b6040516101d09190611e14565b60405180910390f35b6101f360048036038101906101ee9190611db2565b61069b565b005b61020f600480360381019061020a9190611cbd565b6106bb565b60405161021c9190611d2b565b60405180910390f35b61023f600480360381019061023a9190611e2f565b610741565b60405161024c9190611e14565b60405180910390f35b61026f600480360381019061026a9190611f91565b6107f8565b005b6102796108da565b6040516102869190611c65565b60405180910390f35b6102a960048036038101906102a49190612048565b61096c565b005b6102c560048036038101906102c09190612129565b610982565b005b6102e160048036038101906102dc9190611cbd565b6109e4565b6040516102f0939291906121ac565b60405180910390f35b610313600480360381019061030e9190611cbd565b610c18565b6040516103209190611c65565b60405180910390f35b610343600480360381019061033e91906121f1565b610c80565b6040516103509190611bba565b60405180910390f35b60007f80ac58cd000000000000000000000000000000000000000000000000000000007bffffffffffffffffffffffffffffffffffffffffffffffffffffffff1916827bffffffffffffffffffffffffffffffffffffffffffffffffffffffff1916148061042457507f5b5e139f000000000000000000000000000000000000000000000000000000007bffffffffffffffffffffffffffffffffffffffffffffffffffffffff1916827bffffffffffffffffffffffffffffffffffffffffffffffffffffffff1916145b80610434575061043382610d14565b5b9050919050565b60606000805461044a90612260565b80601f016020809104026020016040519081016040528092919081815260200182805461047690612260565b80156104c35780601f10610498576101008083540402835291602001916104c3565b820191906000526020600020905b8154815290600101906020018083116104a657829003601f168201915b5050505050905090565b60006104d882610d7e565b6004600083815260200190815260200160002060009054906101000a900473ffffffffffffffffffffffffffffffffffffffff169050919050565b600061051e826106bb565b90508073ffffffffffffffffffffffffffffffffffffffff168373ffffffffffffffffffffffffffffffffffffffff160361058e576040517f08c379a000000000000000000000000000000000000000000000000000000000815260040161058590612303565b60405180910390fd5b8073ffffffffffffffffffffffffffffffffffffffff166105ad610dc9565b73ffffffffffffffffffffffffffffffffffffffff1614806105dc57506105db816105d6610dc9565b610c80565b5b61061b576040517f08c379a000000000000000000000000000000000000000000000000000000000815260040161061290612395565b60405180910390fd5b6106258383610dd1565b505050565b61063b610635610dc9565b82610e8a565b61067a576040517f08c379a000000000000000000000000000000000000000000000000000000000815260040161067190612427565b60405180910390fd5b610685838383610f1f565b505050565b60006106966006611218565b905090565b6106b683838360405180602001604052806000815250610982565b505050565b6000806106c783611226565b9050600073ffffffffffffffffffffffffffffffffffffffff168173ffffffffffffffffffffffffffffffffffffffff1603610738576040517f08c379a000000000000000000000000000000000000000000000000000000000815260040161072f90612493565b60405180910390fd5b80915050919050565b60008073ffffffffffffffffffffffffffffffffffffffff168273ffffffffffffffffffffffffffffffffffffffff16036107b1576040517f08c379a00000000000000000000000000000000000000000000000000000000081526004016107a890612525565b60405180910390fd5b600360008373ffffffffffffffffffffffffffffffffffffffff1673ffffffffffffffffffffffffffffffffffffffff168152602001908152602001600020549050919050565b60006108046006611218565b90506108108482611263565b60405180606001604052808481526020018381526020013373ffffffffffffffffffffffffffffffffffffffff1681525060076000838152602001908152602001600020600082015181600001908161086991906126f1565b50602082015181600101908161087f91906126f1565b5060408201518160020160006101000a81548173ffffffffffffffffffffffffffffffffffffffff021916908373ffffffffffffffffffffffffffffffffffffffff1602179055509050506108d46006611281565b50505050565b6060600180546108e990612260565b80601f016020809104026020016040519081016040528092919081815260200182805461091590612260565b80156109625780601f1061093757610100808354040283529160200191610962565b820191906000526020600020905b81548152906001019060200180831161094557829003601f168201915b5050505050905090565b61097e610977610dc9565b8383611297565b5050565b61099361098d610dc9565b83610e8a565b6109d2576040517f08c379a00000000000000000000000000000000000000000000000000000000081526004016109c990612427565b60405180910390fd5b6109de84848484611403565b50505050565b60608060008073ffffffffffffffffffffffffffffffffffffffff16610a09856106bb565b73ffffffffffffffffffffffffffffffffffffffff1603610a5f576040517f08c379a0000000000000000000000000000000000000000000000000000000008152600401610a569061280f565b60405180910390fd5b600060076000868152602001908152602001600020604051806060016040529081600082018054610a8f90612260565b80601f0160208091040260200160405190810160405280929190818152602001828054610abb90612260565b8015610b085780601f10610add57610100808354040283529160200191610b08565b820191906000526020600020905b815481529060010190602001808311610aeb57829003601f168201915b50505050508152602001600182018054610b2190612260565b80601f0160208091040260200160405190810160405280929190818152602001828054610b4d90612260565b8015610b9a5780601f10610b6f57610100808354040283529160200191610b9a565b820191906000526020600020905b815481529060010190602001808311610b7d57829003601f168201915b505050505081526020016002820160009054906101000a900473ffffffffffffffffffffffffffffffffffffffff1673ffffffffffffffffffffffffffffffffffffffff1673ffffffffffffffffffffffffffffffffffffffff16815250509050806000015181602001518260400151935093509350509193909250565b6060610c2382610d7e565b6000610c2d61145f565b90506000815111610c4d5760405180602001604052806000815250610c78565b80610c5784611476565b604051602001610c6892919061286b565b6040516020818303038152906040525b915050919050565b6000600560008473ffffffffffffffffffffffffffffffffffffffff1673ffffffffffffffffffffffffffffffffffffffff16815260200190815260200160002060008373ffffffffffffffffffffffffffffffffffffffff1673ffffffffffffffffffffffffffffffffffffffff16815260200190815260200160002060009054906101000a900460ff16905092915050565b60007f01ffc9a7000000000000000000000000000000000000000000000000000000007bffffffffffffffffffffffffffffffffffffffffffffffffffffffff1916827bffffffffffffffffffffffffffffffffffffffffffffffffffffffff1916149050919050565b610d8781611544565b610dc6576040517f08c379a0000000000000000000000000000000000000000000000000000000008152600401610dbd90612493565b60405180910390fd5b50565b600033905090565b816004600083815260200190815260200160002060006101000a81548173ffffffffffffffffffffffffffffffffffffffff021916908373ffffffffffffffffffffffffffffffffffffffff160217905550808273ffffffffffffffffffffffffffffffffffffffff16610e44836106bb565b73ffffffffffffffffffffffffffffffffffffffff167f8c5be1e5ebec7d5bd14f71427d1e84f3dd0314c0f7b2291e5b200ac8c7c3b92560405160405180910390a45050565b600080610e96836106bb565b90508073ffffffffffffffffffffffffffffffffffffffff168473ffffffffffffffffffffffffffffffffffffffff161480610ed85750610ed78185610c80565b5b80610f1657508373ffffffffffffffffffffffffffffffffffffffff16610efe846104cd565b73ffffffffffffffffffffffffffffffffffffffff16145b91505092915050565b8273ffffffffffffffffffffffffffffffffffffffff16610f3f826106bb565b73ffffffffffffffffffffffffffffffffffffffff1614610f95576040517f08c379a0000000000000000000000000000000000000000000000000000000008152600401610f8c90612901565b60405180910390fd5b600073ffffffffffffffffffffffffffffffffffffffff168273ffffffffffffffffffffffffffffffffffffffff1603611004576040517f08c379a0000000000000000000000000000000000000000000000000000000008152600401610ffb90612993565b60405180910390fd5b6110118383836001611585565b8273ffffffffffffffffffffffffffffffffffffffff16611031826106bb565b73ffffffffffffffffffffffffffffffffffffffff1614611087576040517f08c379a000000000000000000000000000000000000000000000000000000000815260040161107e90612901565b60405180910390fd5b6004600082815260200190815260200160002060006101000a81549073ffffffffffffffffffffffffffffffffffffffff02191690556001600360008573ffffffffffffffffffffffffffffffffffffffff1673ffffffffffffffffffffffffffffffffffffffff168152602001908152602001600020600082825403925050819055506001600360008473ffffffffffffffffffffffffffffffffffffffff1673ffffffffffffffffffffffffffffffffffffffff16815260200190815260200160002060008282540192505081905550816002600083815260200190815260200160002060006101000a81548173ffffffffffffffffffffffffffffffffffffffff021916908373ffffffffffffffffffffffffffffffffffffffff160217905550808273ffffffffffffffffffffffffffffffffffffffff168473ffffffffffffffffffffffffffffffffffffffff167fddf252ad1be2c89b69c2b068fc378daa952ba7f163c4a11628f55a4df523b3ef60405160405180910390a4611213838383600161158b565b505050565b600081600001549050919050565b60006002600083815260200190815260200160002060009054906101000a900473ffffffffffffffffffffffffffffffffffffffff169050919050565b61127d828260405180602001604052806000815250611591565b5050565b6001816000016000828254019250508190555050565b8173ffffffffffffffffffffffffffffffffffffffff168373ffffffffffffffffffffffffffffffffffffffff1603611305576040517f08c379a00000000000000000000000000000000000000000000000000000000081526004016112fc906129ff565b60405180910390fd5b80600560008573ffffffffffffffffffffffffffffffffffffffff1673ffffffffffffffffffffffffffffffffffffffff16815260200190815260200160002060008473ffffffffffffffffffffffffffffffffffffffff1673ffffffffffffffffffffffffffffffffffffffff16815260200190815260200160002060006101000a81548160ff0219169083151502179055508173ffffffffffffffffffffffffffffffffffffffff168373ffffffffffffffffffffffffffffffffffffffff167f17307eab39ab6107e8899845ad3d59bd9653f200f220920489ca2b5937696c31836040516113f69190611bba565b60405180910390a3505050565b61140e848484610f1f565b61141a848484846115ec565b611459576040517f08c379a000000000000000000000000000000000000000000000000000000000815260040161145090612a91565b60405180910390fd5b50505050565b606060405180602001604052806000815250905090565b60606000600161148584611773565b01905060008167ffffffffffffffff8111156114a4576114a3611e66565b5b6040519080825280601f01601f1916602001820160405280156114d65781602001600182028036833780820191505090505b509050600082602001820190505b600115611539578080600190039150507f3031323334353637383961626364656600000000000000000000000000000000600a86061a8153600a858161152d5761152c612ab1565b5b049450600085036114e4575b819350505050919050565b60008073ffffffffffffffffffffffffffffffffffffffff1661156683611226565b73ffffffffffffffffffffffffffffffffffffffff1614159050919050565b50505050565b50505050565b61159b83836118c6565b6115a860008484846115ec565b6115e7576040517f08c379a00000000000000000000000000000000000000000000000000000000081526004016115de90612a91565b60405180910390fd5b505050565b600061160d8473ffffffffffffffffffffffffffffffffffffffff16611ae3565b15611766578373ffffffffffffffffffffffffffffffffffffffff1663150b7a02611636610dc9565b8786866040518563ffffffff1660e01b81526004016116589493929190612b35565b6020604051808303816000875af192505050801561169457506040513d601f19601f820116820180604052508101906116919190612b96565b60015b611716573d80600081146116c4576040519150601f19603f3d011682016040523d82523d6000602084013e6116c9565b606091505b50600081510361170e576040517f08c379a000000000000000000000000000000000000000000000000000000000815260040161170590612a91565b60405180910390fd5b805181602001fd5b63150b7a0260e01b7bffffffffffffffffffffffffffffffffffffffffffffffffffffffff1916817bffffffffffffffffffffffffffffffffffffffffffffffffffffffff19161491505061176b565b600190505b949350505050565b600080600090507a184f03e93ff9f4daa797ed6e38ed64bf6a1f01000000000000000083106117d1577a184f03e93ff9f4daa797ed6e38ed64bf6a1f01000000000000000083816117c7576117c6612ab1565b5b0492506040810190505b6d04ee2d6d415b85acef8100000000831061180e576d04ee2d6d415b85acef8100000000838161180457611803612ab1565b5b0492506020810190505b662386f26fc10000831061183d57662386f26fc10000838161183357611832612ab1565b5b0492506010810190505b6305f5e1008310611866576305f5e100838161185c5761185b612ab1565b5b0492506008810190505b612710831061188b57612710838161188157611880612ab1565b5b0492506004810190505b606483106118ae57606483816118a4576118a3612ab1565b5b0492506002810190505b600a83106118bd576001810190505b80915050919050565b600073ffffffffffffffffffffffffffffffffffffffff168273ffffffffffffffffffffffffffffffffffffffff1603611935576040517f08c379a000000000000000000000000000000000000000000000000000000000815260040161192c90612c0f565b60405180910390fd5b61193e81611544565b1561197e576040517f08c379a000000000000000000000000000000000000000000000000000000000815260040161197590612c7b565b60405180910390fd5b61198c600083836001611585565b61199581611544565b156119d5576040517f08c379a00000000000000000000000000000000000000000000000000000000081526004016119cc90612c7b565b60405180910390fd5b6001600360008473ffffffffffffffffffffffffffffffffffffffff1673ffffffffffffffffffffffffffffffffffffffff16815260200190815260200160002060008282540192505081905550816002600083815260200190815260200160002060006101000a81548173ffffffffffffffffffffffffffffffffffffffff021916908373ffffffffffffffffffffffffffffffffffffffff160217905550808273ffffffffffffffffffffffffffffffffffffffff16600073ffffffffffffffffffffffffffffffffffffffff167fddf252ad1be2c89b69c2b068fc378daa952ba7f163c4a11628f55a4df523b3ef60405160405180910390a4611adf60008383600161158b565b5050565b6000808273ffffffffffffffffffffffffffffffffffffffff163b119050919050565b6000604051905090565b600080fd5b600080fd5b60007fffffffff0000000000000000000000000000000000000000000000000000000082169050919050565b611b4f81611b1a565b8114611b5a57600080fd5b50565b600081359050611b6c81611b46565b92915050565b600060208284031215611b8857611b87611b10565b5b6000611b9684828501611b5d565b91505092915050565b60008115159050919050565b611bb481611b9f565b82525050565b6000602082019050611bcf6000830184611bab565b92915050565b600081519050919050565b600082825260208201905092915050565b60005b83811015611c0f578082015181840152602081019050611bf4565b60008484015250505050565b6000601f19601f8301169050919050565b6000611c3782611bd5565b611c418185611be0565b9350611c51818560208601611bf1565b611c5a81611c1b565b840191505092915050565b60006020820190508181036000830152611c7f8184611c2c565b905092915050565b6000819050919050565b611c9a81611c87565b8114611ca557600080fd5b50565b600081359050611cb781611c91565b92915050565b600060208284031215611cd357611cd2611b10565b5b6000611ce184828501611ca8565b91505092915050565b600073ffffffffffffffffffffffffffffffffffffffff82169050919050565b6000611d1582611cea565b9050919050565b611d2581611d0a565b82525050565b6000602082019050611d406000830184611d1c565b92915050565b611d4f81611d0a565b8114611d5a57600080fd5b50565b600081359050611d6c81611d46565b92915050565b60008060408385031215611d8957611d88611b10565b5b6000611d9785828601611d5d565b9250506020611da885828601611ca8565b9150509250929050565b600080600060608486031215611dcb57611dca611b10565b5b6000611dd986828701611d5d565b9350506020611dea86828701611d5d565b9250506040611dfb86828701611ca8565b9150509250925092565b611e0e81611c87565b82525050565b6000602082019050611e296000830184611e05565b92915050565b600060208284031215611e4557611e44611b10565b5b6000611e5384828501611d5d565b91505092915050565b600080fd5b600080fd5b7f4e487b7100000000000000000000000000000000000000000000000000000000600052604160045260246000fd5b611e9e82611c1b565b810181811067ffffffffffffffff82111715611ebd57611ebc611e66565b5b80604052505050565b6000611ed0611b06565b9050611edc8282611e95565b919050565b600067ffffffffffffffff821115611efc57611efb611e66565b5b611f0582611c1b565b9050602081019050919050565b82818337600083830152505050565b6000611f34611f2f84611ee1565b611ec6565b905082815260208101848484011115611f5057611f4f611e61565b5b611f5b848285611f12565b509392505050565b600082601f830112611f7857611f77611e5c565b5b8135611f88848260208601611f21565b91505092915050565b600080600060608486031215611faa57611fa9611b10565b5b6000611fb886828701611d5d565b935050602084013567ffffffffffffffff811115611fd957611fd8611b15565b5b611fe586828701611f63565b925050604084013567ffffffffffffffff81111561200657612005611b15565b5b61201286828701611f63565b9150509250925092565b61202581611b9f565b811461203057600080fd5b50565b6000813590506120428161201c565b92915050565b6000806040838503121561205f5761205e611b10565b5b600061206d85828601611d5d565b925050602061207e85828601612033565b9150509250929050565b600067ffffffffffffffff8211156120a3576120a2611e66565b5b6120ac82611c1b565b9050602081019050919050565b60006120cc6120c784612088565b611ec6565b9050828152602081018484840111156120e8576120e7611e61565b5b6120f3848285611f12565b509392505050565b600082601f8301126121105761210f611e5c565b5b81356121208482602086016120b9565b91505092915050565b6000806000806080858703121561214357612142611b10565b5b600061215187828801611d5d565b945050602061216287828801611d5d565b935050604061217387828801611ca8565b925050606085013567ffffffffffffffff81111561219457612193611b15565b5b6121a0878288016120fb565b91505092959194509250565b600060608201905081810360008301526121c68186611c2c565b905081810360208301526121da8185611c2c565b90506121e96040830184611d1c565b949350505050565b6000806040838503121561220857612207611b10565b5b600061221685828601611d5d565b925050602061222785828601611d5d565b9150509250929050565b7f4e487b7100000000000000000000000000000000000000000000000000000000600052602260045260246000fd5b6000600282049050600182168061227857607f821691505b60208210810361228b5761228a612231565b5b50919050565b7f4552433732313a20617070726f76616c20746f2063757272656e74206f776e6560008201527f7200000000000000000000000000000000000000000000000000000000000000602082015250565b60006122ed602183611be0565b91506122f882612291565b604082019050919050565b6000602082019050818103600083015261231c816122e0565b9050919050565b7f4552433732313a20617070726f76652063616c6c6572206973206e6f7420746f60008201527f6b656e206f776e6572206f7220617070726f76656420666f7220616c6c000000602082015250565b600061237f603d83611be0565b915061238a82612323565b604082019050919050565b600060208201905081810360008301526123ae81612372565b9050919050565b7f4552433732313a2063616c6c6572206973206e6f7420746f6b656e206f776e6560008201527f72206f7220617070726f76656400000000000000000000000000000000000000602082015250565b6000612411602d83611be0565b915061241c826123b5565b604082019050919050565b6000602082019050818103600083015261244081612404565b9050919050565b7f4552433732313a20696e76616c696420746f6b656e2049440000000000000000600082015250565b600061247d601883611be0565b915061248882612447565b602082019050919050565b600060208201905081810360008301526124ac81612470565b9050919050565b7f4552433732313a2061646472657373207a65726f206973206e6f74206120766160008201527f6c6964206f776e65720000000000000000000000000000000000000000000000602082015250565b600061250f602983611be0565b915061251a826124b3565b604082019050919050565b6000602082019050818103600083015261253e81612502565b9050919050565b60008190508160005260206000209050919050565b60006020601f8301049050919050565b600082821b905092915050565b6000600883026125a77fffffffffffffffffffffffffffffffffffffffffffffffffffffffffffffffff8261256a565b6125b1868361256a565b95508019841693508086168417925050509392505050565b6000819050919050565b60006125ee6125e96125e484611c87565b6125c9565b611c87565b9050919050565b6000819050919050565b612608836125d3565b61261c612614826125f5565b848454612577565b825550505050565b600090565b612631612624565b61263c8184846125ff565b505050565b5b8181101561266057612655600082612629565b600181019050612642565b5050565b601f8211156126a55761267681612545565b61267f8461255a565b8101602085101561268e578190505b6126a261269a8561255a565b830182612641565b50505b505050565b600082821c905092915050565b60006126c8600019846008026126aa565b1980831691505092915050565b60006126e183836126b7565b9150826002028217905092915050565b6126fa82611bd5565b67ffffffffffffffff81111561271357612712611e66565b5b61271d8254612260565b612728828285612664565b600060209050601f83116001811461275b5760008415612749578287015190505b61275385826126d5565b8655506127bb565b601f19841661276986612545565b60005b828110156127915784890151825560018201915060208501945060208101905061276c565b868310156127ae57848901516127aa601f8916826126b7565b8355505b6001600288020188555050505b505050505050565b7f4769667420646f6573206e6f7420657869737400000000000000000000000000600082015250565b60006127f9601383611be0565b9150612804826127c3565b602082019050919050565b60006020820190508181036000830152612828816127ec565b9050919050565b600081905092915050565b600061284582611bd5565b61284f818561282f565b935061285f818560208601611bf1565b80840191505092915050565b6000612877828561283a565b9150612883828461283a565b91508190509392505050565b7f4552433732313a207472616e736665722066726f6d20696e636f72726563742060008201527f6f776e6572000000000000000000000000000000000000000000000000000000602082015250565b60006128eb602583611be0565b91506128f68261288f565b604082019050919050565b6000602082019050818103600083015261291a816128de565b9050919050565b7f4552433732313a207472616e7366657220746f20746865207a65726f2061646460008201527f7265737300000000000000000000000000000000000000000000000000000000602082015250565b600061297d602483611be0565b915061298882612921565b604082019050919050565b600060208201905081810360008301526129ac81612970565b9050919050565b7f4552433732313a20617070726f766520746f2063616c6c657200000000000000600082015250565b60006129e9601983611be0565b91506129f4826129b3565b602082019050919050565b60006020820190508181036000830152612a18816129dc565b9050919050565b7f4552433732313a207472616e7366657220746f206e6f6e20455243373231526560008201527f63656976657220696d706c656d656e7465720000000000000000000000000000602082015250565b6000612a7b603283611be0565b9150612a8682612a1f565b604082019050919050565b60006020820190508181036000830152612aaa81612a6e565b9050919050565b7f4e487b7100000000000000000000000000000000000000000000000000000000600052601260045260246000fd5b600081519050919050565b600082825260208201905092915050565b6000612b0782612ae0565b612b118185612aeb565b9350612b21818560208601611bf1565b612b2a81611c1b565b840191505092915050565b6000608082019050612b4a6000830187611d1c565b612b576020830186611d1c565b612b646040830185611e05565b8181036060830152612b768184612afc565b905095945050505050565b600081519050612b9081611b46565b92915050565b600060208284031215612bac57612bab611b10565b5b6000612bba84828501612b81565b91505092915050565b7f4552433732313a206d696e7420746f20746865207a65726f2061646472657373600082015250565b6000612bf9602083611be0565b9150612c0482612bc3565b602082019050919050565b60006020820190508181036000830152612c2881612bec565b9050919050565b7f4552433732313a20746f6b656e20616c7265616479206d696e74656400000000600082015250565b6000612c65601c83611be0565b9150612c7082612c2f565b602082019050919050565b60006020820190508181036000830152612c9481612c58565b905091905056fea26469706673582212206e9aa334e1ee3f25a28236e846cc8689cbeda512b72092a143e530521cedaef564736f6c634300081c0033",
  "linkReferences": {},
  "deployedLinkReferences": {}
}